:020000040801F1
:10000000000002207DD50108315E0108355E01083F
:10001000395E01083D5E0108415E010879D501089D
:1000200079D5010879D5010879D50108D16E010883
:1000300079D5010879D50108F56E0108D95601086E
:1000400079D5010879D5010879D5010879D5010854
:1000500079D5010879D501083152010837520108D4
:100060003D5201084352010849520108BD500108A0
:10007000CD500108DD500108ED500108FD50010888
:100080000D5101081D51010879D5010879D50108E4
:1000900079D5010879D5010879D501084F520108B1
:1000A000695A0108755A0108815A01088D5A0108D8
:1000B000995A0108A55A0108B15A01083D5501088D
:1000C00055550108495501086155010879D50108C0
:1000D00079D50108C15C0108CD5C0108D95C010833
:1000E0005752010879D5010879D50108E15A01086C
:1000F000ED5A0108F95A0108055B01082D51010864
:1001000079D5010879D50108BD5A010879D50108CA
:10011000E55C0108F15C0108C95A0108D55A0108DB
:100120003D5101084D5101085D5101086D51010813
:100130007D51010879D5010879D5010879D50108E3
:1001400079D5010879D5010879D50108B972010876
:100150008D5101089D510108AD51010879D5010863
:1001600079D5010879D5010879D5010879D5010833
:1001700079D5010879D5010879D5010879D5010823
:1001800079D5010879D501080C4BDA68D1030ED472
:10019000D868C2060DD4D96811F0EF0F0BD1DA6818
:1001A00002F00203002B0CBF05200C207047012039
:1001B0007047032070470B20704700BF003C02408F
:1001C00013B50446FFF7E0FF0CE000230193FF2383
:1001D00001E00198431E019301990029F9D1FFF72D
:1001E000D3FF013C012803D1002CEED1062002E010
:1001F000002C08BF06201CBD70B5044641B1012982
:1002000008D0022914BF4FF440764FF4007603E083
:100210000E4601E04FF4807640F6FF70FFF7D0FF06
:10022000052820D1104D286920F440732B612A69DC
:1002300016432E61296921F0F80028612B6943F0EB
:10024000020214432C61296941F48030286140F690
:10025000FF70FFF7B5FF2B6923F002022A612969BD
:1002600021F0F8032B6170BD003C024000F178439F
:10027000B3F5803F05DA002BBCBF074BC3189B13B7
:1002800006E0B3F5003F02DB5B14043300E0042317
:10029000D8000321FFF7B0BFFF3F00F8134B00F178
:1002A00078429A4270B504460E461CD81F20FFF7CC
:1002B00087FF052818D10E4D296921F44070286167
:1002C0002B6943F480722A61296941F00100286199
:1002D0001F202680FFF774FF062805D02B6923F026
:1002E00001022A6170BD072070BD00BFFEFF07003C
:1002F000003C0240044B1A69002A03DA034904480F
:1003000059605860704700BF003C024023016745B8
:10031000AB89EFCD014B9868704700BF10E000E05B
:10032000014B1868704700BF342E002038B5FFF726
:10033000F7FF0446FFF7EEFF054600BF00BFFFF7DB
:10034000EFFF8442F3D109480368DB0303D5FFF7CD
:10035000E1FF01340546C5F524354035A822B5FB3B
:10036000F2F54FF47A7101FB045038BD10E000E063
:1003700081627047C16270473430013940F82120F2
:100380007047410101F184400123C0F88032704779
:1003900005F072BF70470000254A264B106040F2FE
:1003A000DC514FF47A72196059609960DA601A6111
:1003B0005A619A61DA611A625A62002307E00121E8
:1003C0001D4A03EB010C42F823105FFA8CF38342C1
:1003D000F5DB1A4B40F2DC5119605960996000233B
:1003E00008E0174A02EB83014FF07E5C5A1CC1F80B
:1003F00000C0D3B28342F4DB002308E0114A02EBD1
:1004000083014FF07E5C0133C1F800C0DBB2834250
:10041000F4DB002308E00C4A02EB83014FF07E5C22
:100420000133C1F800C0DBB28342F4DB704700BF88
:100430009C2A00201029002058290020B82A0020DA
:10044000482C0020E42A0020542600200849094BAB
:1004500051F8202053F82010531A00EE103ADFED27
:10046000067AB8EEC07A67EE276A16EE900A7047F1
:1004700010290020B82A00200BD7A33B2A4B07EEF7
:10048000101A196801EE101AD2ED040AB8EE410AEA
:1004900007EE900A254830EE606ADFED256A0378A2
:1004A00086EE265A82ED040A77EEC75A33B1D2EDB2
:1004B000051A45EE851AC2ED051A01E000205061CB
:1004C000D2ED066A92ED056AF1EE667AB4EEE76A5D
:1004D000F1EE10FA08D4B4EE666AF1EE10FACCBF71
:1004E000F0EE667AF0EE467AD2ED034A92ED024AD9
:1004F00077EE643ADFED0F2A63EE843A65EE222A46
:1005000092ED013AC3EEA22A82ED037A92ED007ACF
:10051000C2ED057A67EE837A45EE877A37EEA22A36
:1005200012EE100A704700BF882C0020AC28002073
:10053000002474490000C8420C490D4B086807EEBE
:10054000100AF8EE477A00225A61C3ED047A1A6362
:10055000C3ED0B7ADA64C3ED127A9A66C3ED197AA9
:10056000C3F88420C3ED207A704700BF882C002098
:10057000142B002091ED005A9FED203A05EE900AD1
:100580009FED1F2A65EE037A45EE827AD1ED014A8E
:10059000DFED1C2A44EEA27A91ED024A44EE037A82
:1005A000D1ED031A41EE827A91ED047A9FED161A8D
:1005B00047EE017AD1ED056ADFED140A46EEE07AE6
:1005C00091ED066A9FED120A46EE007A91ED073A28
:1005D000DFED103A43EE637A086081ED034AC1ED26
:1005E000024A81ED015A81ED076AC1ED066A81ED8B
:1005F000057AC1ED047A17EE900A7047D58111BBD8
:100600007932F83A1A1B5E3B382F5740200B89404D
:100610000A771C404CF3063F0D4B0E4A0020186031
:1006200058609860D860186158619861D861186204
:1006300058629862D862186358639863D8631A64E2
:100640005A649A64DA641A655A659A65DA6570477D
:10065000E02900206DE71CC14160704710B50446D9
:1006600006F0AAF8204606F054F901462046FFF7A6
:10067000F3FF00232372204610BD2DE9F04104460C
:100680000D460079012117461E4606F02DFA207905
:10069000002106F0D3F9204629463A463346BDE804
:1006A000F04106F0AFB8F8B504460D4600790021D8
:1006B0001F46164606F018FA207A60F07F031D43A5
:1006C000E9B2204606F01CF93D4606E0204600212E
:1006D00006F016F906F8010B013D002DF6DC207935
:1006E0000121BDE8F84006F0FFB907B501230DF17F
:1006F0000702FFF7D8FF9DF807000EBDF8B50446C6
:100700000D46007900211F46164606F0EDF9237AC2
:100710001D43E9B2204606F0F3F83D4605E02046C9
:1007200016F8011B06F0ECF8013D002DF7DC2079EE
:100730000121BDE8F84006F0D7B907B502AB03F8D0
:10074000012D1A460123FFF7D9FF0EBD02480521EE
:1007500001220323FFF791BFD429002010B5064CD6
:10076000204606F06DF8012120460A460323BDE825
:100770001040FFF782BF00BFD429002008B5034610
:100780000A4604481946FFF7D8FF0120BDE8084093
:1007900006F047B9D429002010B501460448FFF7F8
:1007A000A4FF0446012006F03CF9204610BD00BF1E
:1007B000D42900201E4B10B51C78002C36D1012204
:1007C0001A70FFF7C3FF7520FFF7E6FF00F07E0009
:1007D00068282BD1174B186840F0030119606B2073
:1007E0008021FFF7CBFF642006F01BF96A2010215F
:1007F000FFF7C4FF6B200321FFF7C0FF6C202146E9
:10080000FFF7BCFF19202146FFF7B8FF1A2003218C
:10081000FFF7B4FF1B201021FFF7B0FF1C200821B9
:10082000FFF7ACFFBDE81040FFF798BF10BD00BF59
:100830009C290020742C002001EBD171491004E0A8
:100840000378427843700270023011F1FF31F7D221
:100850007047000010B5064C06483B2122460E2387
:10086000FFF721FF20460E21BDE81040FFF7E4BF4F
:10087000382C0020D4290020074810B5074C016807
:1008800022684B1C9342036004D0FFF7E3FF236808
:100890005A1C226010BD00BF94290020FC270020B4
:1008A00010B5074C0748216802684B1C934223602F
:1008B00004D0FFF7CFFF23685A1C226010BD00BF91
:1008C00088280020FC270020024A034B1A60FFF70B
:1008D00071BF00BF58A00B3A902C002008B5FFF75D
:1008E00025FD124BDFED127A93ED027AB4EEE77A32
:1008F000F1EE10FA0F4B06DC9FED0F0AB4EEC07A52
:10090000F1EE10FA10D519680C4A411A01EE901A4E
:100910009FED0B1AF8EE616AD2ED000AC6EE816A0D
:1009200047EE260AC2ED000A186008BD902A002092
:1009300035FA8E3C8C2A002035FA8EBC4C260020DD
:100940000024744910B5FFF7ABFF0D4B0D491C682F
:10095000B1F908000C4A24181C6010605C68B1F9F9
:100960000A00B1F90C105060201858609868916026
:1009700041189960054B1878421C1A7010BD00BFD1
:1009800084290020382C0020A4290020CD29002013
:100990007FB51F4B1F4D1A6895F800C0596892FB30
:1009A000FCF41D4A10685668241A91FBFCF0301ABA
:1009B0009E689168019496FBFCFC0022CCEB01013F
:1009C0001A605A609A602A7001EE904A134A144BDA
:1009D000029000EE900A06EE901AD2ED007AB8EE80
:1009E000E11AB8EEE00AB8EEE67A21EE271A20EE18
:1009F000270A67EE277A039183ED001A83ED010A37
:100A0000C3ED027A04B0BDE87040FFF767BF00BFD6
:100A100084290020CD29002054280020902C00207B
:100A2000902A002070B5B2B000243194154D22E018
:100A3000FFF710FF144B14B9B3F9083005E0012C8F
:100A40000CBFB3F90A30B3F90C304DF806300A2068
:100A5000043605F0E6FFC42EEAD13121684631AAFA
:100A600004F08CFA319B192B07DC0134E4B2032C1F
:100A700045F8040F03D00026DAE7002000E001204B
:100A800032B070BD50280020382C0020FFF792BEF5
:100A900008B5FFF7F1FE0C4B0C4A1868B2F900C01C
:100AA00000EB0C0119605868B2F90210B2F904C0E9
:100AB0009A68401802EB0C0158609960044B187852
:100AC000421C1A7008BD00BF00290020382C0020ED
:100AD0006E280020F0B5114A114C177811481249C0
:100AE00000231646114D5A5992FBF7F200EE102AD8
:100AF00004340430F8EEC06A94ED007AD0ED007A48
:100B000046EE877A002217EE90CA5A5104330C2B16
:100B100041F804CFE6D13270F0BD00BF6E2800204E
:100B200034290020BC2C0020282C00200029002083
:100B300010B5002408E0FFF78DFEFFF7A9FF40F68F
:100B4000C41005F068FF0134B4F5C87FF3D1204824
:100B500020490023204C1A5900EE902A9FED1F0ACD
:100B6000B8EEE07A043087EE007AD0ED007A67EED6
:100B7000277A17EE902A41F8042F00221A510433E5
:100B80000C2BE7D11649174B17481A7091ED022A22
:100B9000DFED162A72EEC21AD1ED004A32EE211AAA
:100BA000D1ED013AB5EEC01AF1EE10FA104BB1EEEC
:100BB000644AB1EE633AD8BFB1EE411A80ED004A03
:100BC00080ED013AC0ED021A83ED001A10BD00BF9E
:100BD00034290020282C0020002900200000C843D0
:100BE0002C2C00206E280020C02C00206DE71CC19A
:100BF000882A0020044901EB800393ED000AFDEEF2
:100C0000C07A17EE900A704700280020044901EBD3
:100C1000800393ED000AFDEEC07A17EE900A70474C
:100C20006C2A002010B54620002105F007FF0024A3
:100C3000462004F00101013405F056FFE4B23220F1
:100C400005F0EFFE0A2CF3D14520002105F0F6FE59
:100C50004520002105F048FF4520002105F0EEFE6B
:100C60004520002105F040FF2020032105F0E6FE8D
:100C70001020032105F0E2FE2420032105F0DEFE12
:100C80001120032105F0DAFE2520032105F0D6FE10
:100C90002220032105F0D2FE0321232005F0CEFE01
:100CA0003720002105F0CAFE4020002105F0C6FED5
:100CB0004120002105F0C2FE3420002105F0BEFED7
:100CC000034817211622BDE8104005F0FDBF00BF04
:100CD000F42C0020074B08490848094A196058605D
:100CE0009A600849084B0948094A196058609A6097
:100CF000704700BF38290020A8E49C3A17F19DBA3C
:100D000091459ABA00001843D42800200000C04141
:100D10000000844138B5074D074C2A682068131A33
:100D2000B3F57A7F05D3FFF70DFEFFF7B1FE296813
:100D3000216038BD882C00201C2800200448054A6A
:100D4000002303604360836013605360704700BFFB
:100D5000BC290020D82A00202DE9F84F2DED068B64
:100D6000DDED108A08EE103A68EEA82A48EE082A4F
:100D70009DED119ADDED127A49EE092AB6EE003AA0
:100D800027EE833ADFF83092864C874F874D884EA6
:100D9000DFF828A2DFF828B2DFF8288289ED003AD0
:100DA00009EE900A12EE900A0AEE902A0AEE101A44
:100DB0000BF00CFB0CF014FF0BF03EFE02EE100AE1
:100DC00088EE825AD8F80000C9EE023AD4ED000A43
:100DD00097ED006AD5ED006A96ED000A66EE261AD8
:100DE00026EEA01A50EE201A06EE001A20EE000A97
:100DF00016EE060A88EE024A06EEE60A00EEA00AA1
:100E000071EE015A20EE058A15EEA38ADAED007A1A
:100E10009BED007A48EE077A71EEA14A25EE849A9E
:100E200064EEA38A18EE101A50EE048A14EE859A26
:100E3000CAED007A04F0C6F8434610B10022CAF8A1
:100E40000020DFF88491DFF88481D9ED004A9BED22
:100E5000007A48EE874A83ED008AC9ED004AD8F847
:100E6000000018EE901A04F0ADF8434610B10020CF
:100E7000C9F80000DFF858819BED004A98ED005A50
:100E800009EE045ADFF84CB1C3ED008A88ED005A30
:100E9000DBF8000019EE101A04F094F843465A46A5
:100EA00008B10021196082ED009A424AD2ED000A91
:100EB00040EE89AA40EE889A00EEA8AAD3ED003A47
:100EC000D9ED006A9AED006A7AEEA3AAD5ED004A40
:100ED0003AEE26AA97ED007A79EE869A96ED005AB8
:100EE00064EEAA5A24EE8A0A47EE295A94ED001AB3
:100EF00015EE690A41EE4A5A2F4B25EE2A4A01EEB9
:100F00006A0A17EE0A4A93ED003AF0EE452A65EEBA
:100F10000A7A45EE832A01EE294AB0EE472A47EEC7
:100F20002A7A00EE032AF0EE641A44EEE97A44EEDF
:100F3000031A22EEA26A02EE026A07EE831A01EE9B
:100F4000A16A01EE016A87ED002A16EE100AC6EDCD
:100F5000002AC5ED001A84ED001A0BF037FA0CF0E8
:100F60003FFE0BF069FDD7ED006A05EE900AD6ED65
:100F7000000AD5ED003A94ED000AC6EEA56AC0EE6F
:100F8000A50AC3EEA53AC0EE255AC7ED006AC6ED24
:100F9000000AC5ED003AC4ED005ABDEC068BBDE871
:100FA000F88F00BFF4280020E8280020F028002057
:100FB000EC28002090290020442900201828002037
:100FC0005429002078280020742800207C28002044
:100FD00050280020802800202DE9F8433C4C3D4E4D
:100FE0003D4D3E4F2DED048BD4ED005A96ED008A19
:100FF000D5ED007AD7ED008A68EE255A48EEA75A5B
:10100000B7EE009A35EEA55A15EE100A0BF0DEF990
:1010100068EE084A48EEA84A804634EEA44A89465B
:1010200079EE443A13EE900A0BF0D0F902460B46E3
:10103000404649460CF038FC0BF0FEFC97ED006A88
:10104000D4ED002AD5ED006A96ED003A66EE222A2C
:1010500056EE832ADFF8888032EEA22AC8F8000014
:1010600012EE100A0BF0B2F90CF0CAFB0BF0E4FC24
:10107000D6ED008AD7ED001A95ED007A94ED008A3E
:1010800068EEA11A48EE071AC8F8040031EEA11A5A
:1010900011EE100A0BF09AF968EE080A48EEA80A59
:1010A000044630EEA00A0D4679EE407A17EE900A1B
:1010B0000BF08CF902460B46204629460CF0F4FB57
:1010C0000BF0BAFCC8F80800BDEC048BBDE8F8834F
:1010D000F4280020F0280020E8280020EC28002038
:1010E000BC29002008B5FFF729FE0F4B0F49104817
:1010F000104A4FF07E5CC3F800C000230B60036011
:1011000013600D490D480E4A0B60036013600D49D2
:101110000D480E4A0B60036013600D480D490E4ADE
:101120000E4B08601A6008BDE8280020EC2800205B
:10113000F0280020F428002018280020742800201F
:1011400050280020782800207C28002080280020BB
:10115000CDCC4C3E902900206F12033A5429002038
:101160001FB5DDF818E0DDF81CC0074CCDF800E035
:10117000CDF804C024680294FFF7EEFD04B0BDE88A
:101180001040FFF729BF00BF540C00202DE9F041AB
:10119000069DD0610027976213606E1E1D68B30024
:1011A00005F1340808EB0300556014469060D762DF
:1011B000918216624FF0010202FA03F84FEA4800EA
:1011C00060622168087904F075FA1A4AB0FBF2F3FC
:1011D000581E4FF6FF71A862E9622F60EA6822F09C
:1011E0000103EB60286A20EA080129622B6A626A1F
:1011F000012E23EA02032B62D4BF05F1180305F187
:101200001C0306F001001968C000FF2616FA00F260
:1012100021EA02061E601A68612111FA00F61643DF
:101220001E60296A012348EA010028622B60BDE89C
:10123000F08100BF40420F0073B500241148124AEC
:10124000235C1B01D5186E68BEB1D058297B0A22D9
:1012500004F036F8697B0D4B0091302202FB04321A
:10126000204640F2DC513346FFF790FF084A697B85
:1012700052F82420304604F049FB0134082CDDD11B
:101280007CBD00BFA8070208C41900207C260020EE
:10129000000C002043681A6A416A4A401A6270478B
:1012A000416883681B680A6A416A1142816A10B505
:1012B00014BF0022012291B10AB1C38213E0C48A93
:1012C000191B1FFA81FCACF560735C1FA1B240F2E0
:1012D000AE44A14294BFA0F814C0826203E012B1F0
:1012E0000122C3828262BDE81040FFF7D3BF000035
:1012F000024B302202FB0030FFF7D2BF7C260020D9
:101300000720FFF7F5BF0620FFF7F2BF0520FFF724
:10131000EFBF0420FFF7ECBF0320FFF7E9BF022077
:10132000FFF7E6BF0120FFF7E3BF0020FFF7E0BFB4
:1013300008B5FFF731F8BDE80840FFF77DBF0000B2
:10134000064B1B5C072B06DC054A302000FB032103
:10135000888A80B2704740F2DC507047B0070208BC
:101360007C26002070B500242DED028B33E0304840
:10137000A6008119204691ED008AFFF7E1FF2D4B71
:1013800002EE900A9A1992ED002AB8EEE27A55F828
:101390002420294B294808EE072A01EE102AFDEEE9
:1013A000C21A9E1911EE901AF8EEE17AF8EEC10A0F
:1013B00040F82410326817EE900A10EE901A03F0ED
:1013C000C5FD00EE100ABDEEC06A16EE100A45F823
:1013D00024000134E4B21A4D2A681A4D9442C6DB47
:1013E000194C94ED007A00231849EC5858581849C4
:1013F000241A04EE904A04EE100AF8EEE46AF8EEBD
:10140000C43A46EE873ABDEEE33A13EE100A58505E
:1014100004330C2BE8D1032305E055F8230041F8F1
:1014200023000133DBB29342F7DBBDEC028B70BDCE
:10143000482C0020E42A002054260020F425002017
:101440009C2A002058290020F0250020B82A0020DE
:101450001029002038B50B4D00240EE00A4A0B4835
:1014600014F802C055F8042F00EB0C1392B259681F
:101470000868597BFEF780FF013405490B689C42E0
:10148000ECDB38BD28280020B8070208C41900206A
:10149000642A002038B5054600240BE0084B0948B3
:1014A000E15C00EB011301345A68597B1068AAB261
:1014B000FEF762FF044802689442EFDB38BD00BFCC
:1014C000B8070208C4190020642A0020F8B51D4E90
:1014D0000728C8BF0820306000241CE01A4F1B4DAD
:1014E000E75D05EB071501346968087904F0E2F857
:1014F000174B6A68B0FBF3F0411E89B21068FEF723
:1015000037FF6B6840F6C4111868FEF733FF3846A2
:10151000072105F093FA3568AC42DFDB002409E0CF
:10152000094A0A4BA15C03EB0110013442681068C0
:10153000FEF727FFAC42F3DB4FF47A70BDE8F840CA
:10154000FFF7A8BF642A0020B8070208C4190020CA
:1015500040420F0038B5054600240FE040F24C40F1
:10156000FFF798FFFA2005F05CFA4FF47A70FFF766
:1015700091FFFA2005F055FA0134E4B2AC42EDD106
:1015800038BD00002DE9F0412DED108B8CB0DDED64
:10159000228A08EE103A28EEA81A08EE081A9DEDE5
:1015A000239A0A9109EE091A4FF07C5103EE101AA2
:1015B000DDED270ADFF86083099060EE830A11EE03
:1015C000100A0B92C8ED000A9DED25AA0AF0FEFE56
:1015D000DDED249ADDED26AA0CF002FB0BF02CFACF
:1015E0002AEE0A0A09EEA90A0AEEAA0A02EE900AEF
:1015F00010EE100A88EE22FABD4EBE4DBE4CBF4F13
:10160000C8EEA2FAC9EE22EA0AF0E0FE0CF0E8FA0F
:101610000BF012FA09EE100A8AEE09BA4FF07C506C
:10162000C9EE89BA8AEE899AD6ED001A03EE100A3D
:1016300095ED006A94ED007A01EEE13AD7ED005A9B
:101640007BEE0B9A27EE071A26EE06EA08EE100A42
:101650003BEEAB4A21EE862A65EE870ACDED019A74
:1016600079EE098A73EE412A9DED010A8DED004A5B
:1016700038EE4EAA32EE204ACDED028ADDED014A67
:1016800072EE608ADDED00AA7AEE416A26EE07DA94
:1016900065EEA1DA20EE228A9DED005A65EE86CA3B
:1016A00021EE87CA0AEE848A64EEA88A45EE268A6D
:1016B0007DEE6D9A9DED029A7CEE2C3ADDED027A7C
:1016C00009EE298A47EEA38A28EE088A08EEA88A3E
:1016D0008DED033A18EE100A0AF078FE0CF080FA4D
:1016E000D7ED008A95ED009A96ED008AD4ED009A28
:1016F00068EE89AA58EE29AA28EE085A3AEEAAAA54
:1017000018EEA85A8DED04AA29EE29AA69EE096AF5
:1017100008EE88AA29EEA97A75EE661A7AEE0A4AC8
:1017200071EE875ACDED054ACDED066A8DED077A4B
:10173000CDED085A0BF080F99DED086ADDED052A24
:1017400066EE2F4A52EEAE4A9DED040A6C4A6D4B8E
:10175000D2ED006A93ED004A60EE2E1A56EE0F1A93
:1017600002EE100A6848694B44EE846AD0ED005AD4
:10177000DDED010A3DEE2DDADDED003A3CEE6CCAFE
:1017800041EE845ADDED037A20EE8D1AC2ED006A37
:1017900003EE8C1A5E4A9DED023A37EECEEA62EE17
:1017A0008F0AD2ED003A50EE2F0A9DED095AC0ED96
:1017B000005A03EE0E1A4FF07C5093ED000A03EE30
:1017C000A45A02EE900A9DED066A00EE840A72EEBB
:1017D000C64A9DED074A28EEA93A31EE011A9DED61
:1017E0000A7A18EE093A75EE266A32EE022A34EECB
:1017F000C45A03EEA17A61EE0A1A21EE2A1A02EE09
:10180000051A42EE031ADDED0B7A2BEE011A43EEB8
:10181000A07A83ED000A1BEEA11A3E4B77EE255A03
:1018200093ED007AF0EE670A41EE070A69EE257A39
:1018300030EE806A58EE667A69EE063A48EEA63ACD
:1018400028EE063A49EEE53A49EEC67A18EEA53A90
:1018500098ED002A68EE252AB0EE484A03EE824A47
:1018600009EEA63A48EE862AF0EE684A47EE824A2A
:1018700049EE662AB0EE495A03EE025A64EE041AA3
:1018800044EEA41A42EE829A45EE051A49EEA91AD0
:10189000C7ED004A11EE900A86ED004A85ED005A28
:1018A000C4ED009A0AF092FD0CF09AF90BF0C4F81E
:1018B00097ED001A07EE900AD6ED000A95ED000AA2
:1018C00094ED007A81EE271AC0EEA70A80EE270A6F
:1018D000C7EE277A87ED001AC6ED000A85ED000AEB
:1018E000C4ED007A0CB0BDEC108BBDE8F08100BFF8
:1018F000B02C0020B42C0020B82C0020AC2C0020F0
:10190000D42A0020942C0020502600208428002077
:10191000B02A0020E02A0020B42900202DE9F84355
:101920003C4C3D4E3D4D3E4F2DED048BD4ED005AC9
:1019300096ED008AD5ED007AD7ED008A68EE255A3B
:1019400048EEA75AB7EE009A35EEA55A15EE100AE2
:101950000AF03CFD68EE084A48EEA84A804634EE9C
:10196000A44A894679EE443A13EE900A0AF02EFD15
:1019700002460B46404649460BF096FF0BF05CF8DA
:1019800097ED006AD4ED002AD5ED006A96ED003A95
:1019900066EE222A56EE832ADFF8888032EEA22AEB
:1019A000C8F8000012EE100A0AF010FD0BF028FF34
:1019B0000BF042F8D6ED008AD7ED001A95ED007ACB
:1019C00094ED008A68EEA11A48EE071AC8F80400E0
:1019D00031EEA11A11EE100A0AF0F8FC68EE080ABE
:1019E00048EEA80A044630EEA00A0D4679EE407A89
:1019F00017EE900A0AF0EAFC02460B4620462946FA
:101A00000BF052FF0BF018F8C8F80800BDEC048B7F
:101A1000BDE8F883B82C0020B42C0020AC2C0020AA
:101A2000B02C002098280020024B186059609A6062
:101A3000704700BF982800202DE9704F2DED068BD0
:101A40008CB008EE100A1A9809EE902A1E4608EE8D
:101A5000901A0AF0BBFC8146304688460AF0B6FC74
:101A600002460B46484641460BF01EFF0AF0E4FFD3
:101A700068EEA80A48EE080A49EEA90A0AEE900A9A
:101A800010EE900A0AF0A2FC0CF0AAF80AF0D4FFBB
:101A900000EE100A88EE009A4FF0000688EE808A69
:101AA000C9EE808A68EEA89AF0EE697A49EE097A62
:101AB00017EE900A0AF08AFC0CF092F804460D46E4
:101AC00018EE100A0AF082FC22462B460BF0ECFEC0
:101AD0000AF0B2FFF5EEC08AF1EE10FA0AEE100A33
:101AE00002D5B1EE4AAA0AE09FED7A1AB5EEC08A95
:101AF000F1EE10FAACBF3AEE41AA3AEE01AA48EE76
:101B0000089AB6EE008A19EE900A0AF05FFC0CF013
:101B100067F804460D4619EE100A0AF057FC2B46EA
:101B200022460BF0C1FE0AF087FF08EE900A1AEE7B
:101B3000902A1AEE100A18EE901AFFF775FF6AEE57
:101B4000087A17EE900A0AF041FC04460D460BF0A5
:101B5000C9FD68EE887ACDE9020117EE900A0AF015
:101B600035FC804689460BF0BDFDCDE90601DDE977
:101B70000623DDE902010AF07DFC6AEE887ACDE9F0
:101B8000080117EE900A0AF021FCCDE904010BF0E0
:101B9000A9FDCDE90001204629460BF0E5FD82466E
:101BA0008B46404649460BF0DFFD04460D46224673
:101BB0002B46504659460AF05DFCCDE90A01DDE9A5
:101BC00004010BF0D1FDDDE9002380468946DDE903
:101BD00008010AF04FFC4246CDE904014B46DDE91D
:101BE0000A010AF047FC02460B46DDE904010AF04F
:101BF0008FFA0AF021FF384B59461860DDE90623B9
:101C000050460AF037FC224682468B462B46DDE9D9
:101C100002010AF02FFCDDE9002304460D46504680
:101C200059460AF027FC4246CDE902014B462046C0
:101C300029460AF01FFC02460B46DDE902010AF0C4
:101C400065FA0AF0F9FE254B29461860DDE9002304
:101C500020460AF00FFC424604460D464B465046CD
:101C600059460AF007FC02460B46204629460AF070
:101C70004FFA0AF0E1FE1A4B424618604B46DDE986
:101C800008010AF0F7FBDDE9002304460D46DDE913
:101C90000A010AF0EFFB02460B46204629460AF0ED
:101CA00035FA0AF0C9FE0F4B0F4A18600F4B104966
:101CB0001E60104B1E60104B1E60104B1A60104BC4
:101CC0000B6010490A60104A13600CB0BDEC068B23
:101CD000BDE8708FDB0F4940AC2C0020B02C0020F9
:101CE000B42C0020B82C0020CDCC4C3ED42A0020AF
:101CF000942C00205026002084280020B02A0020A8
:101D00006F12033AE02A00203026002007B505496B
:101D1000054B0868054A0090002001461B68FFF744
:101D20008BFE0EBDC4280020C0280020CDCC1CC1D5
:101D300010B586B0099CDDF820C001940C9CDDF83C
:101D400028E0CDF800C00494DDF82CC00D9CCDF83F
:101D500008E0CDF80CC00594FFF714FCFFF7DEFD9A
:101D60000248034B82681A6006B010BD9828002014
:101D7000702800207FB50F4B0F4A59680091D3F8A7
:101D800008C00E49CDF804C008680290D1F804E0FC
:101D90000B48CDF80CE0D1F808C0CDF810C00168B0
:101DA0000591106851681B689268FFF7C1FF07B082
:101DB00000BD00BF7C2A0020902A00206C2A002051
:101DC000540C002010B5044603F087F801EE900A89
:101DD000B8EEE11A84ED011A03F07FF8404200EEFC
:101DE000900AB8EEE00A84ED020A03F076F807EEF6
:101DF000100AF8EEC77AC4ED007A10BDF8B5474D69
:101E0000474C2DED088B07460E461E20032103F09C
:101E100047F81E210622434804F0D0FF2846FFF76A
:101E2000D1FF1E200221012203F078F83E4B3F4AE9
:101E30003F494048D3ED003A93ED013A95ED022A2F
:101E4000D3ED022AD5ED009A95ED019A72EE228A21
:101E500039EE039A79EEA39AC2ED008AC4ED009A96
:101E600080ED009AC1ED028A3846C1ED009A81EDFD
:101E7000019A0AF0ABFA04460D460BF033FC0AF067
:101E8000DBFD29460BEE100A20460BF06DFC0AF034
:101E9000D3FD0AEE900A30460AF098FA04460D4641
:101EA0000BF020FC06460F46204629460BF05CFC52
:101EB0000AF0C2FD39460AEE100A30460AF0BCFDAF
:101EC00069EE2A1A01EE100A21EE8A8A09EE818A49
:101ED00068EE8B0A68EEAA8A59EE0B8A00EE8A8AAF
:101EE00028EEA80A08EE080AF1EE688A10EE100A39
:101EF0000AF06CFA0BF074FE0AF09EFD07EE900AF1
:101F000088EE277A0C480D4BC8EEA77A80ED007A50
:101F1000C3ED007ABDEC088BF8BD00BF002800209F
:101F2000C8280020F42C0020D4280020D02800202D
:101F30006C2A0020CC280020C0280020C4280020C3
:101F40000A2008B504F06DFD1E2002F0CBFF10281A
:101F500004D10D4B186840F004021A6001212022C0
:101F60001E2002F0DBFF142004F05BFD02211E2086
:101F7000012202F0D3FF142004F053FD002001469B
:101F8000BDE80840FFF73ABF742C00200548064B17
:101F900090ED007A93ED000A77EE407A17EE900A02
:101FA000704700BFB02900202428002030B5C48924
:101FB000002224F0FF03C38113464FEA620112F0AE
:101FC000010F15BF10F8111030F811104B4083EAC3
:101FD0001123082113F4004F4FEA43031DBF83F47C
:101FE00040554FF6FE732B409BB20139F2D10132BE
:101FF000102AE2D1C481180B30BD000070B5124D1B
:102000000646A0243046214602F04AFF02220F482D
:10201000314604F0D3FE022813D102F055FF0234FA
:10202000E4B2B02C25F8020FECD1094C2046FFF7A2
:10203000BDFFE18901F00F03C21A504240EB0200DC
:1020400070BD002070BD00BF9E2A0020F42C00202F
:10205000A02A00201E2102F023BF000010B500219D
:10206000044602F01DFF032221460B4804F0A6FEA1
:10207000094804F0B6FE03280BD102F023FF044602
:1020800002F020FF000240EA044402F01BFF20435C
:1020900010BD002010BD00BFF42C00207620582178
:1020A00002F0FEBE2DE9F8437620FFF7D7FF18496E
:1020B000184A8B884C8910604FEA034824020B8928
:1020C000154D041BA3FB04674FEAE47C03FB0C776C
:1020D000F20942EA4762FB114FF0000912EB0802D5
:1020E00043EB0903C5E900234B88DE03CB880B498A
:1020F000A3FB044503FB0C55220A42EA05620027B4
:102100002B12921943EB0703C1E90023BDE8F883C2
:10211000A02A0020B8290020F8280020202600202E
:102120007620482102F0BCBE38B57620FFF796FF36
:10213000124B134918600B684968C217414303FBEF
:102140000212A3FB00010F4B5118D3E90023440DE9
:1021500044EAC1244D15A21A65EB0303900A40EA34
:10216000835099120AF088FDDFED077A06EE900A97
:1021700066EEA76A16EE900A38BD00BFE028002080
:1021800020260020F82800200000003D38B5164C1D
:1021900023782DED028BF3B1144D95ED008AFFF7F6
:1021A000C3FF07EE900A124938EE278A85ED008AB0
:1021B0000D786A1C0F4D0A702878142805D1FFF796
:1021C0006DFF00232B70237001E0FFF7A9FF2A7831
:1021D000501C287005E0FFF765FFFFF7A1FF012104
:1021E0002170BDEC028B38BD8C280020982C00207B
:1021F0006D28002038260020F8B52D4D2B78002BB7
:1022000051D006EE903A2B4C2B4B94ED007AF8EE21
:10221000E67AC7EE277A9FED297AC7EE876AC3ED83
:10222000007A16EE900A0AF0D1F8254B0646186897
:102230000F460AF0CBF802460B46304639460BF003
:1022400035FB02460B4600201E491F4E09F05EFF7B
:1022500015A3D3E900230AF00DF90AF0EDFB1B4B9F
:1022600018601B4B197819B1002230601A7005E014
:10227000184B31681A6802F069FE30600022226053
:10228000154C20780021297068B9FEF74FF81349E2
:102290000B68C3EB000C1248844504D93068114B1D
:1022A000012218602270F8BD0000000040A5E54042
:1022B0006D280020982C0020A029002080E6C5472A
:1022C000340C00200000F03FB029002080290020BD
:1022D0002C0C0020580C00204C2800200C2B002037
:1022E000809698002428002008B5FFF74FFFBDE82E
:1022F0000840FFF781BF000010B52DED028B9FED68
:102300000C8A1924FFF7F0FF0A4BD3ED007A0C205A
:1023100038EE278A04F085FB013CF3D1B3EE090ABD
:1023200088EE000A044880ED000ABDEC028B10BD67
:1023300000000000802900202428002010B5FDF7AF
:10234000F5FF1A4C1A4920601A4A1B4B1B4C1A60A5
:102350000020086020607620FFF77CFE032004F058
:1023600060FB7620FFF74AFE20B1154B186840F05D
:1023700008021A60FFF792FE1249134800230B70FF
:1023800003700A2004F04DFBFFF700FF0A2004F061
:1023900048FBFFF7A9FF0A2004F043FBFFF7ACFF5F
:1023A000FFF7AAFF2168094A116010BD0C2B00201D
:1023B000A0290020AEDC423E340C0020242800205E
:1023C000742C00208C28002038260020B029002002
:1023D00070B50C4C0E46616A154682B2086894F8D6
:1023E0002D10FDF7C9FF6069617F0068B2B2FDF78B
:1023F000C3FF6368617B1868AAB2BDE87040FDF74F
:10240000BBBF00BFC41900202DE9F04100241A4FC2
:102410001A4E14F8078006EB08150134696808792C
:1024200003F048F9164B6A68B0FBF3F0411E89B21D
:102430001068FDF79DFF6B6844F620611868FDF792
:1024400099FF0721404604F0F9FA032CDFD100245C
:1024500017F804C006EB0C10013442681068FDF751
:1024600090FF032CF4D140F2DC5001460246BDE857
:10247000F041FFF7ADBF00BFB9080208C419002042
:1024800040420F0006EE100A504803685048012BE6
:1024900070B506EE901A05EE902A4E4D4E4C4F49FF
:1024A0004F4B504A72D12D684F4E006805EE105ABE
:1024B00096ED000AF8EEC57A46EE007A07EE100AAD
:1024C000B8EEC76AF4EEC67AF1EE10FA0AD44748BD
:1024D000006800EE900AB8EEE06AF4EEC67AF1EE1B
:1024E00010FA02DDBDEEC66A01E0BDEEE76A4048C3
:1024F0000968D0ED001A206802EE100AF8EEC27AE0
:1025000046EEA17A01EE101AF8EEC16AF4EEE67A10
:10251000F1EE10FA0AD43748016802EE901AF8EE8C
:10252000E26AF4EEE67AF1EE10FA02DDFDEEE66A1A
:1025300001E0FDEEE76A1B682F49126803EE903A4E
:1025400091ED003AF8EEE37A45EE837A05EE902AB3
:10255000B8EEE57AF4EEC77AF1EE10FA0AD4274A1B
:10256000106804EE100AB8EEC47AF4EEC77AF1EE01
:1025700010FA02DDBDEEC77A01E0BDEEE77A16EE95
:10258000100A16EE901A17EE102A1AE02D6800684D
:10259000854204DB154800688542B8BF2846246898
:1025A00009688C4204DB134909688C42B8BF214694
:1025B0001B681268934204DB104A12689342B8BF4A
:1025C0001A46BDE87040FFF703BF00BF102B002084
:1025D000D0290020682800201C260020E4250020A7
:1025E000C82900208C2C0020D02A0020642800203C
:1025F000BC2C002034260020EC250020E8250020FB
:1026000008B5FFF701FF002001460246BDE808407B
:10261000FFF738BF0D480E490E4A0F4B70B50468DE
:10262000086811681A680D4BC0EB040C20180CEBFD
:102630000106C1EB0C054418411AB61AAD18A418CE
:102640008A1A1E605D60DC609A6070BD480C0020D4
:1026500028280020782C0020C42A00202C280020C4
:102660002DE9F843404B414E1A78414F012A9846D4
:1026700075D1404DFFF78AFC2C683F4A0146204641
:10268000FDF7FCFE00EE100A3C49FDEEC06A0C6846
:1026900016EE900AA042894604DB394B1C68A04222
:1026A000B8BF044614F57A7F59D0364A0020116825
:1026B000354AFDF7E3FE07EE900AD9F8000000EE78
:1026C000900AB1EE677AF8EEE07AB4EEE77AF1EECE
:1026D00010FA0CD42A4B196801EE101AF8EEC17AE0
:1026E000B4EEE77AF1EE10FAD8BFF0EE477A274A57
:1026F00027491368FA680868C2EB030CBCF1000FA5
:10270000B8BFCCF1000C844503DD022088F800003E
:1027100018E02049096803EB010E724507DD95EDCD
:10272000002ADFED1D1A32EE217A85ED007A581A63
:10273000824207DAD5ED003A9FED173A73EEC32ACD
:10274000C5ED002A1C1905EE904AB8EEE55A75EE63
:10275000274ABDEEE44A86ED004ABDE8F883FB68EF
:102760003360BDE8F88300BF782A0020480C0020C1
:1027700010290020B42A0020F42B00203C0C00205B
:102780004C0C00202C260020102C0020500C002087
:10279000200C0020280C00200AD7233C2DE9F0470C
:1027A0002DED028B3D483E4C03783E4E3E4D012BB5
:1027B00046D1DFF81C91DFF81C81D9F80020D8F849
:1027C0000070D11B03EE101A9FED388AF8EEC32A71
:1027D000374F384A396822EE882A12EE100AFDF780
:1027E0004DFED8F804307A688246D9F80400C3EB6D
:1027F000000C01EE90CAB8EEE11A82F0004121EE21
:10280000087A2D4A17EE100AFDF738FE21682B4A88
:1028100007465046FDF732FE00EE900A6168284AEE
:10282000FDEEE07A384681F00041C6ED007AFDF712
:1028300025FE00EE100AFDEEC06AC5ED006A28E034
:10284000204F0020FDF702FED4ED000AD7ED007AFC
:1028500020EEA70A1C4A10EE101AFDF70FFE06EE36
:10286000900ABDEEE66A012086ED006AFDF7EEFDF6
:1028700094ED015AD7ED005A65EE654A134A14EEFD
:10288000901AFDF7FBFD04EE100AFDEEC43AC5ED0B
:10289000003ABDEC028BBDE8F08700BF702C002031
:1028A000902A0020782C002028280020A69BC43ADB
:1028B000BC290020682B0020842B0020BC2B00208A
:1028C000D82B0020300C0020142B0020302B0020AF
:1028D00010290020B82A00201B4B1A781B4B032A12
:1028E0000CD0052A19D0012A0CBF4FF4FA624FF41C
:1028F0007A721A605A609A60DA6023E014480268BB
:10290000B2F5966FB4BF11464FF49661B2F57A7F77
:10291000ACBF0A464FF47A72EBE700220D495158DA
:10292000B1F57A7F05DBB1F5966FA8BF4FF49661DC
:1029300001E04FF47A7199500432102AEED1064B1F
:1029400001221A70FEF786BDCC2900202C28002019
:10295000380C0020B02800207C2C0020074A136887
:10296000B3F57A7F05DB40F23A718B42A8BF0B4684
:1029700001E04FF47A731360704700BF480C0020E9
:10298000154A164B106816494FF4FA6210B59A6052
:10299000DA601A605A60134B086048608860C8604B
:1029A00093E8060098689142B8BF1146DA68814200
:1029B000B8BF01469142B8BF11460022B1F5FA6F87
:1029C00005DD9C58C1F5FA6C04EB0C0098500432FC
:1029D000102AF3D110BD00BF942800209C2C0020A9
:1029E0003C2600202C2800200448406940F2D56392
:1029F0009842CCBF00200120704700BF1029002062
:102A000038B5FFF7F1FF0F4CC0B12378022B18D077
:102A10000D4D287878B9FFF7B9FA0C490C4BC1F87D
:102A2000EC0018600B480C4B0022C1F8F420C2687F
:102A300001211A6029700120207038BD02492070E0
:102A4000087038BD782A00204C290020142B002063
:102A5000B42A002010290020500C0020F8B55C4852
:102A60005C4E03785C4C012B7ED15C4A5C495D4B2B
:102A700092ED007ADFED5C7A5C4A67EE277A9FED93
:102A80005C6A92ED007A77EE465A77EEC76AF4EE0A
:102A9000E57AF1EE10FAC1ED007AC3ED006A05D8CF
:102AA0009FED540A76EE806AC3ED006A77EE060A5F
:102AB000F4EEE07AF1EE10FA07DB93ED002ADFED99
:102AC0004D1A32EE611A83ED001AF06840F24C4C58
:102AD000604542DD3F488168A1F5B860C11E3229DA
:102AE0000ED945490023C2ED007AC1F8A030434A0F
:102AF0004349236000201070424B0A681A6033E09B
:102B000093ED007AF5EE002AB4EEE27AF1EE10FAD7
:102B100006D5BDEE003AB4EEC37AF1EE10FA1EDC33
:102B20003649384D0878364F68B93B682F683648C3
:102B3000DF1B874218D90120C2ED007A00220870FD
:102B40002B60226010E017EE101A00202F4AFDF7CC
:102B500095FC39682060296006E0C2ED007A264ABB
:102B600000232360C2F8A030294BB2689968501A3C
:102B700007EE900AD4ED004AF8EEE73ADFED257A49
:102B80009FED254A64EEA77A43EE847A9FED237A7F
:102B9000F4EEC77AF1EE10FA0BD49FED215AF4EE61
:102BA000457AF1EE10FACCBF15EE100A17EE900A36
:102BB00001E017EE100A1B491B4A8968FDF75EFC0D
:102BC00005EE900A1948BDEEE56A80ED006AF8BD91
:102BD0004D280020102900204829002070280020BE
:102BE00020280020E4280020E12E6542A8280020AB
:102BF000000034430000B443142B00206C28002054
:102C0000882C00209829002020A10700A02B00205C
:102C1000B82A002035FA8E3C0BD7A33BDB0F49C006
:102C2000DB0F4940902A00204C2B0020C42A0020B2
:102C3000F8B5FFF7B3FDFFF711FF28480368D90780
:102C400003D4FFF70DFDFFF789FE254C217821B154
:102C5000244D2A780AB1FFF7DDFCFFF791FE224BE5
:102C60002249D86840F24B4C604501DD002315E055
:102C70001F4A204E204F126836783D780023CA50F4
:102C80002EB1002D14BF10464FF4FA6000E010463C
:102C90001A4FD8510433102BF1D1E7E71848CA581E
:102CA0001D58954204DB154A9A589542B8BF2A46EA
:102CB000C2500433102BF1D1217809B9FFF70CFE73
:102CC0002078012809D1074B93F800E0BEF1010FED
:102CD00003D1BDE8F840FEF7BDBBF8BD5029002088
:102CE000282600207C2C0020102900203C260020D3
:102CF00094280020AC280020702C00209C2C002060
:102D00002C28002038B585B22946074802F099F8EA
:102D10000024A91C60F30F0489B2034802F091F863
:102D200060F31F44204638BDCC2C002038B5044643
:102D30008DB22946A2B2054802F08BF8A91C0348BF
:102D400089B2220CBDE8384002F083B8CC2C0020B8
:102D50000B4A38B51C2404FB002408460D46FFF737
:102D6000D1FF2060281DFFF7CDFF606005F108004E
:102D7000FFF7C8FF0023A060E360636138BD00BFB8
:102D8000142B002038B5094B1C2404FB00340D46DD
:102D90002068FFF7CBFF6068291DFFF7C7FFA06819
:102DA00005F10801BDE83840FFF7C0BF142B002033
:102DB000F8B5534A534C544E544B554F5549564809
:102DC000564DA660666262652267C4F8B060C4F8BA
:102DD000CC60534A23604FF07E56E361A763C4F88A
:102DE0008C10C4F8A8304F49C4F8C43006604E4B6C
:102DF0004E484F4F65602562C4F8E42000256FF00F
:102E00003102C4F89010C4F8E030C4F8F830A56579
:102E1000484BE5656567A567E7632564C4F894508A
:102E2000C4F8AC50C4F8C850C4F8E850C4F8FC501A
:102E3000C4F80051C4F8045102603F4A32201860BF
:102E400011603E4B3E4A5A20FA2118601160FDF78E
:102E500041FF3C4B3C483D4A03603D49A3616363ED
:102E60002365E366C4F88830C4F8A430C4F8C030E1
:102E7000C4F8DC30C4F814311660364B364A40F2E0
:102E80007E4008601A6035483549364A0823013BC0
:102E9000DBB240F8046F41F8045F42F8046F002B86
:102EA000F5D13149314A4FF07C5088603049314882
:102EB000137001230B7007602F4A304830491360AC
:102EC0000860304A304B314831491A600860314B54
:102ED000314A324840F2DC51196011600160304BD8
:102EE000304A31484FF47A711960116001602F4BFC
:102EF0002F4A30484FF4FA61196011600160F8BD43
:102F000000006040142B00200000AFC30000C84246
:102F10000000484300004040300C002000001643F1
:102F20009A99193FCDCCCC3D0000C8413C0C002003
:102F30000000A0404C0C0020580C0020280C002061
:102F4000200C002000007A44602A0020F025002098
:102F500094280020882A00200AE81CC1442C002064
:102F6000E02A00205026002054260020702C00204B
:102F70004D2800200C290020102B002066269F449D
:102F8000D02A002066261F44BC2C002066269F43C2
:102F9000EC250020682800201C260020C8290020DD
:102FA000D0290020E42500208C2C0020642800205B
:102FB00034260020E8250020002038B50146FFF720
:102FC000C7FE01202421FFF7C3FE02201821FFF7CE
:102FD000BFFE03200C21FFF7BBFE04203021FFF7CA
:102FE000B7FE05203C21FFF7B3FE06204821FFF77E
:102FF000AFFE54210720FFF7ABFE4FF4A670FFF79A
:1030000081FE8C4C8C4D206060210820FFF7A0FED3
:103010004FF4A070FFF776FE884CC4F8F8004FF428
:103020009E70FFF76FFE864B18604FF4A270FFF79B
:1030300069FE00EE100A834AFDEEC07A4FF4A470D8
:10304000C2ED007AFFF75EFE07EE100A7E49FDEE44
:10305000C76A4FF49C70C1ED006AFFF753FE06EE9D
:10306000100A7A48FDEEC65AC0ED005A4FF49A7025
:10307000FFF748FE05EE100AFDEEC54A0920C5ED32
:10308000004A6C21FFF764FE4FF4B470FFF73AFE7C
:103090006F4D28604FF4B670FFF734FE68604FF450
:1030A000B870FFF72FFEA8604FF48C70FFF72AFE70
:1030B000684BA061186060632065E066C4F8880012
:1030C000C4F8A400C4F8C000C4F8DC00C4F81401BB
:1030D0004FF49070FFF716FE04EE100A5E4AFDEE04
:1030E000C43A4FF49270C2ED003AFFF70BFE5B4911
:1030F00008604FF49470FFF705FE03EE100AFCEE33
:10310000C32A574812EE90CA80F800C04FF4987056
:10311000FFF7F8FD534B18604FF49670FFF7F2FD80
:1031200002EE100AFCEEC21A4F4A11EE901A4FF44A
:10313000C4701170FFF7E6FD01EE100A4B48FDEE7A
:10314000C10AC0ED000A4FF4C670FFF7DBFD484B23
:1031500018604FF4C870FFF7D5FD464A10604FF471
:10316000CA70FFF7CFFD444908604FF4CC70FFF7F9
:10317000C9FD00EE100A414BFDEEC07A4FF4CE704F
:10318000C3ED007AFFF7BEFD07EE100A3C4AFDEEE4
:10319000C76A4FF4D070C2ED006AFFF7B3FD06EEC8
:1031A000100A3849FDEEC65A4FF4D270C1ED005AEC
:1031B000FFF7A8FD05EE100A3348FDEEC54AC0ED45
:1031C000004A4FF4D470FFF79DFD04EE100A2F4B18
:1031D000FDEEC43A4FF4D670C3ED003AFFF792FD0E
:1031E00003EE100A2A4AFDEEC32A4FF4D870C2ED4E
:1031F000002AFFF787FD02EE100A2649FDEEC21AEB
:103200004FF4DA70C1ED001AFFF77CFD01EE100AF1
:103210002148FDEEC10AC0ED000A4FF4DC70FFF753
:1032200071FD00EE100A1D4BFDEEC07AC3ED007A71
:1032300038BD00BF300C00204C0C0020142B0020A7
:10324000580C0020280C0020200C00203C0C0020F2
:10325000D4280020602A0020942800200C29002077
:10326000702C0020882A00204D280020102B0020E0
:10327000D02A0020BC2C0020EC250020682800204B
:103280001C260020C8290020D0290020E425002089
:103290008C2C00206428002034260020E825002003
:1032A000F8B572B600200146FFF76CFD012024211D
:1032B000FFF768FD03200C21FFF764FD0420302197
:1032C000FFF760FD02201821FFF75CFD05203C217F
:1032D000FFF758FDA94DAA4CAA4E06204821FFF73A
:1032E00051FD07205421FFF74DFD28684FF4A671CA
:1032F000FFF71CFD08206021FFF744FDA24A4FF4B0
:10330000A071D2F8F800FFF711FDA04908684FF44A
:103310009E71FFF70BFD20689D4C03EE100AF8EE3E
:10332000C32A4FF4A27112EE900AFFF7FFFC994BEB
:103330001F6802EE107AF8EEC21A4FF4A47111EE73
:10334000900AFFF7F3FC3568934F944E01EE105A44
:10335000F8EEC10A4FF49C7110EE900AFFF7E6FCFC
:103360008F4A904D116800EE101AF8EEC07A4FF4B3
:103370009A7117EE900AFFF7D9FC09206C21FFF72C
:1033800001FD20684FF4B471FFF7D0FC60684FF482
:10339000B671FFF7CBFCA0684FF4B871FFF7C6FC1D
:1033A00081484FF48C710068FFF7C0FC7F4B4FF4ED
:1033B0008E711868FFF7BAFC002404F19C0157F8DD
:1033C000040FFFF7B3FC04F1A00156F8040FFFF758
:1033D000ADFC04F1A40155F8040F0C34FFF7A6FC72
:1033E000602CEAD17249086800EE100AF8EEC07A43
:1033F0004FF4907117EE900AFFF798FC6D4B4FF465
:1034000092711868FFF792FC6B4A117807EE101A58
:10341000F8EE476A4FF4947116EE900AFFF786FCB7
:103420006648037806EE103AF8EE465A4FF4967165
:1034300015EE900AFFF77AFC614A4FF49871106814
:10344000FFF774FC5F484FF48A71FFF76FFC0020B0
:103450004FF4C071FFF76AFC00204FF4C271FFF710
:1034600065FC5949086805EE100AF8EEC54A4FF4A4
:10347000C47114EE900AFFF759FC544B4FF4C67117
:103480001868FFF753FC524A4FF4C8711068FFF7F1
:103490004DFC504908684FF4CA71FFF747FC4E488D
:1034A000036804EE103AF8EEC43A4FF4CC7113EE10
:1034B000900AFFF73BFC494A116803EE101AF8EE38
:1034C000C32A4FF4CE7112EE900AFFF72FFC444846
:1034D000036802EE103AF8EEC21A4FF4D07111EE02
:1034E000900AFFF723FC3F4A116801EE101AF8EE2C
:1034F000C10A4FF4D27110EE900AFFF717FC3A4858
:10350000036800EE103AF8EEC07A4FF4D47117EE6B
:10351000900AFFF70BFC354A116807EE101AF8EE17
:10352000C76A4FF4D67116EE900AFFF7FFFB3048DA
:10353000036806EE103AF8EEC65A4FF4D87115EE4D
:10354000900AFFF7F3FB2B4A116805EE101AF8EE0C
:10355000C54A4FF4DA7114EE900AFFF7E7FB2648EC
:10356000036804EE103AF8EEC43A4FF4DC7113EE3F
:10357000900AFFF7DBFB62B6F8BD00BF300C0020FD
:10358000280C00203C0C0020142B0020580C00209C
:10359000D4280020200C0020442C0020E02A002009
:1035A0004C0C002050260020602A0020F02500202E
:1035B000942800200C290020702C00204D28002089
:1035C000882A0020CDCC4C40102B0020D02A00208F
:1035D000BC2C0020EC250020682800201C260020A0
:1035E000C8290020D0290020E42500208C2C0020B0
:1035F0006428002034260020E825002038B54FF448
:103600009870FFF77FFB114B114D18604FF4AA70B3
:10361000FFF778FB28604FF4A870FFF773FB0D4CA1
:1036200020604FF4AE70FFF76DFB68604FF4AC7034
:10363000FFF768FB60604FF4B270FFF763FBA860B0
:103640004FF4B070FFF75EFBA06038BD882A002001
:1036500038290020C02C002038B5144B144D1868B0
:10366000144C4FF49871FFF761FB28684FF4AA716E
:10367000FFF75CFB20684FF4A871FFF757FB686801
:103680004FF4AE71FFF752FB60684FF4AC71FFF777
:103690004DFBA8684FF4B271FFF748FBA0684FF4E8
:1036A000B071BDE83840FFF741BB00BF882A002059
:1036B00038290020C02C002038B5254CA26840F2E3
:1036C0004B439A420BDC234D2878012807D14FF455
:1036D0007A70FDF7DFFE204900222A700A70A06888
:1036E0001B4A40F24B43984212DC106840F26C7C5B
:1036F00060450DDD516899420ADCFDF793F9FDF74D
:1037000017FAFFF7A9FFFCF717FF0320FDF722FFC9
:10371000A26840F26C739A4210DD0E4B187868B9BB
:103720000E490A78012A09D10D491A7040F24C401D
:10373000086048608860C860FCF7FEFEA26840F23E
:103740004C4C624502DD054B0120187038BD00BFAE
:103750001029002028260020AC2800207C2C0020E6
:103760002C28002038B5184CFDF7FCFDE26840F22B
:103770004B439A4201DCFFF79FFF144B187848B97E
:1037800013490A78012A05D11249E568086885427B
:10379000C8BF1A702469104D40F2DC5E74450F4CAE
:1037A00094F800C0D4BF4FF0000E4FF0010EF44566
:1037B00085F800E003D0FCF7BFFE2A782270BDE850
:1037C0003840FFF71DB900BF10290020AC280020A9
:1037D0002826002094280020702C0020440C002073
:1037E000F8B54FF48E70FFF78DFA0E4B0E4F0F4E5B
:1037F0000F4D1860002404F19C00FFF783FA47F88E
:10380000040F04F1A000FFF77DFA46F8040F04F15D
:10381000A400FFF777FA0C34602C45F8040FEAD1C6
:10382000F8BD00BFF0250020442C0020E02A002035
:1038300050260020074BD3ED007AF5EEC07AF1EE6A
:1038400010FA44BF9FED047A77EE877A17EE900A5C
:10385000704700BF70280020DB0FC940F8B5002674
:1038600004460F46067035460F4803F0B1F828B9F4
:103870000120013603F0D5F8F6B206E00A4803F05D
:10388000BAF860550135EDB2002625B1601910F87F
:10389000013C3B2B04D0092E02D8791E8D42E3DB7C
:1038A00000226255F8BD00BFF02C00201FB500219A
:1038B0000B2201A8009105F0F3FB68460F21FFF7EA
:1038C000CDFF684605F03CFB09F0B6F805B000BD39
:1038D00038B50546002403E0FFF7E8FF0134E4B201
:1038E000AC42F9D138BD0000084910B51C2404FBD6
:1038F0000014FFF7DBFF2060FFF7D8FF6060FFF7E1
:10390000D5FF0023A060E360636110BD142B00208D
:1039100010B50446FFF7CAFFDFED0B7A07EE100A79
:10392000B4EE677AF1EE10FA4FF00000074B04D1C5
:10393000074A1C701070012010BD1870054B4FF421
:103940007A71196010BD00BF66E6F642CC290020EE
:1039500028260020380C002038B5854803F038F8B8
:10396000002800F0F681824803F045F8814B18707A
:103970003138292800F2ED81DFE810F0A401A6011A
:10398000AB01BA01C701EB01EB01EB01EB01EB016C
:10399000EB01EB01EB01EB01EB01EB0134003E002D
:1039A0004F0060009500A100AF00BE00D000E00015
:1039B000E400F40020012E012A003001EB01EB01AC
:1039C000EB01EB0197019C019E01EB01EB01DA0198
:1039D000FFF76CFFFFF76AFFFFF768FFBDE83840AD
:1039E000FFF764BF0020FFF77FFF0120FFF77CFF98
:1039F000FFF75CFF604B0EE00320FFF775FF04202C
:103A0000FFF772FF0620FFF76FFF0720FFF76CFF3D
:103A1000FFF74CFF594B186038BD0220FFF764FFD9
:103A20000520FFF761FFFFF741FF00EE100ABCEE33
:103A3000C07A534917EE100A087038BD0820FFF706
:103A400053FFFFF733FF4F4BC3F8F800FFF72EFF8C
:103A500003EE900A4C4ABDEEE33A82ED003AFFF7DE
:103A600025FF02EE900A4949BDEEE22A81ED002AC7
:103A7000FFF71CFF01EE900A4548FDEEE17AC0ED2C
:103A8000007AFFF713FF01EE100A424BFDEEC10A68
:103A9000C3ED000AFFF70AFF3F4A10600920BDE8A6
:103AA0003840FFF721BFFFF701FF3C490860FFF7EF
:103AB000FDFE04EE100A3A4BFDEEC47AF2E0FFF789
:103AC000F5FE384C2060384C04F12005FFF7EEFE7F
:103AD00044F8040FAC42F9D138BDFFF7E7FE05EE1C
:103AE000100A3248FDEEC54AC0ED004A14EE904A75
:103AF000FFF7DCFE2E4B0DE0FFF7D8FE06EE100AB6
:103B00002A4AFDEEC65AC2ED005A15EE904AFFF75A
:103B1000CDFE284B03EB8404206038BDFFF748F945
:103B2000FFF7BEFBFFF798FDFCF77CFFFCF704FDF9
:103B3000FEF706FABDE83840FEF700BCBDE83840A5
:103B4000FCF770BFFFF7B2FE1B4C2060FFF7AEFE24
:103B5000FFF7ACFE6060FFF7A9FEFFF7A7FEA060CD
:103B6000FFF7A4FEFCF7E4FFBDE83840FFF774BDA3
:103B7000F02C0020240C0020300C0020602A0020B3
:103B80004D280020142B0020280C0020200C0020A1
:103B90003C0C00204C0C0020580C00200C2900206C
:103BA00094280020F025002050260020CC2A002058
:103BB000482C0020E42A002038290020FFF776FE58
:103BC000644C2060FFF772FE6060FFF76FFEA0603C
:103BD000BDE83840FFF764BB032067E0FFF766FEEF
:103BE00000EE100A5C4BBDEEC07A83ED007AFFF761
:103BF0005DFE06EE900A594ABDEEE66A82ED006A65
:103C0000FFF754FE05EE900A5549BDEEE55A81EDE9
:103C1000005AFFF74BFE04EE900A5248BDEEE44A0C
:103C200080ED004AFFF742FE4F4B1860FFF73EFE63
:103C30004E4A1060FFF73AFE4D490860FFF736FE26
:103C400003EE900A4B4BBDEEE33A83ED003AFFF7EB
:103C50002DFE02EE900A484ABDEEE22A82ED002ACD
:103C6000FFF724FE01EE900A4448FDEEE17AC0ED34
:103C7000007AFFF71BFE01EE100A4149FDEEC10A72
:103C8000C1ED000AFFF712FE00EE100A3D4BBDEE3B
:103C9000C07A83ED007AFFF709FE06EE900A3A4BF0
:103CA000FDEEE67AC3ED007A38BD0220BDE838406B
:103CB000FFF70EBE0920F9E7FFF7F2FABDE838403A
:103CC000FCF73ABC012000E00220BDE83840FFF7D5
:103CD0001FBE0320FFF71CFE00283AD0FFF7E6FDC9
:103CE00001EE100A2948FDEEC10AC0ED000A38BDF8
:103CF0000420FFF70DFE00282BD0254B234A00207F
:103D00004FF47A711870116038BD0520FFF700FE7E
:103D1000F8B10024FFF7CAFD01EE900AFDEEE17A4A
:103D20001C4A17EE901AA1500434102CF2D138BD61
:103D3000FFF7BCFD02EE100AF7EE002AB4EE622A8D
:103D4000F1EE10FA144B02D10120187038BD002199
:103D5000197038BDD4280020102B002068280020BE
:103D60001C260020C8290020D02A0020BC2C0020BE
:103D7000EC250020D0290020E42500208C2C0020F8
:103D80006428002034260020E8250020380C00207C
:103D9000CC290020B02800208D28002001482C21AB
:103DA00002F092B8F02C002008B501460A22034820
:103DB00002F001F9BDE80840FFF7F0BFF02C002049
:103DC00008B501460A22034802F01CF9BDE8084084
:103DD000FFF7E4BFF02C002038B50546002404E0CE
:103DE0000020FFF7EDFF0134E4B2AC42F8D138BD5A
:103DF00007B508F0EBFA02460B4605480221009190
:103E000002F0BAF903B05DF804EBFFF7C7BF00BFDB
:103E1000F02C0020074B10B51C2404FB0034206854
:103E2000FFF7E6FF6068FFF7E3FFA068BDE810401A
:103E3000FFF7DEBF142B0020844638B50B480C4634
:103E40006146154602F045F80848094902F041F874
:103E5000084803681C4203D10448074902F039F8B6
:103E600002482946BDE8384002F043B8F02C002053
:103E7000EC090208742C0020C007020800000000B2
:103E800013B50A220F21364802F0C3F835493448E9
:103E900002F01FF8012430A3D3E900233048009436
:103EA00002F06FF92E48304902F013F82C482F49E0
:103EB00002F01FF82A482E4902F00BF828482D4935
:103EC00002F017F826482C4902F003F80A220821CC
:103ED000234802F09EF82248284901F0FAFF042105
:103EE0000A221F4802F095F821462548254AFFF787
:103EF000A3FF02212448234AFFF79EFF08212348FD
:103F0000204AFFF799FF042121481E4AFFF794FF3A
:103F100010212048204AFFF78FFF20211F481E4A0A
:103F2000FFF78AFF40211E481B4AFFF785FF8021CB
:103F30001C48194AFFF780FF1B48174A4FF480714D
:103F4000FFF77AFF0648194902B0BDE8104001F0BA
:103F5000D0BF00BFAFF30080000000A099990940D6
:103F6000F02C0020C5070208D8070208E507020860
:103F7000F007020800080208070802081B080208E8
:103F8000240802082E08020837080208450802081B
:103F90004F0802085C080208B10802086908020814
:103FA000770802088708020898080208A80802088B
:103FB000F7B58E4C23786B2B264600F03D812DD82B
:103FC000642B00F0958019D8362B00F0AD820ED806
:103FD000232B00F0A48203D8212B40F0B28295E27B
:103FE000242B00F05382252B40F0AB8252E2622B4F
:103FF0005FD073D8612B40F0A4824FE0672B00F0B4
:10400000B08006D8652B00F09380662B40F0998233
:1040100096E0692B2CD000F2D880B7E0722B00F02C
:10402000CB8110D86E2B00F0878106D86C2B00F066
:1040300044816D2B40F085825EE1702B00F0808121
:1040400000F2B3817AE1752B00F0098206D8732B58
:1040500000F0C581742B40F07482F7E1792B00F0F9
:104060000E827A2B00F00D82762B40F06A82FFE1FF
:104070005F4C2068FFF7BCFE6068FFF7B9FEA068E0
:104080005C4CFFF7B5FE2068FFF7B2FE6068FFF7F3
:10409000AFFEA068FFF7ACFE00248CE00020FFF725
:1040A000B9FE0120FFF7B6FE534B1868FFF7A0FEDC
:1040B000E1E10320FFF7AEFE0420FFF7ABFE062090
:1040C000FFF7A8FE0720FFF7A5FE4C48006808F0A0
:1040D0007DF90B460221024600912BE10220FFF7F9
:1040E00099FE0520FFF796FE454A46481178BBE148
:1040F0000820FFF78FFE4449D1F8F800FFF778FE5B
:10410000424B1868FFF75CFE414A1068FFF758FE03
:1041100040480068FFF754FE3F490868FFF750FE2B
:104120003E4B1868FFF764FE0920FFF773FEA2E11B
:104130003B480068FFF75CFE3A4A3248116893E159
:10414000394D3A4C2868FFF753FE04F1200554F826
:10415000040FFFF74DFEAC42F9D10220FFF73CFE01
:10416000EAE1334C04F1200554F8040F08F02EF96D
:1041700002460B4623480621009101F0FDFF2C2149
:10418000204801F0A1FEAC42EED1D5E1294C04F16A
:10419000200554F8040F08F019F9024606200B46D2
:1041A0000090184801F0E8FF2C21164801F08CFE21
:1041B000AC42EED1C0E120460134FCF727FDE4B269
:1041C000FFF7FEFD032CF6D13AE10020FCF712FDCB
:1041D000FFF7F6FD0120FCF70DFDFFF7F1FD0220D2
:1041E000FCF708FD0146074856E100BF240C0020FB
:1041F000902A00207C2A0020300C0020602A002019
:104200004D280020F02C0020142B0020280C00202A
:10421000200C00203C0C00204C0C0020580C0020EE
:104220000C29002094280020F02500205026002092
:10423000442C0020E02A00209A4E9B4F306808F062
:10424000C5F8062502460B469848009501F094FFF4
:10425000FFF7A4FD386808F0B9F802460B4693480A
:10426000009501F089FFFFF799FD706808F0AEF83E
:1042700002460B468D48009501F07EFFFFF78EFD4C
:10428000786808F0A3F802460B468848009501F0CC
:1042900073FFFFF783FDB06808F098F802460B46FD
:1042A0008248009501F068FFFFF778FDB86808F0D4
:1042B0008DF8009502460B463CE07D4C7D4DFCF7A9
:1042C000E7FB2668287896FBF0F0FFF779FD2B785E
:1042D0006168002691FBF3F02660FFF771FDA2688C
:1042E00095F800C0666092FBFCF170480A2201F06C
:1042F00090FEA6602E7024E16F4D286808F066F8E5
:10430000062602460B466948009601F035FFFFF786
:1043100045FD686808F05AF802460B466348009667
:1043200001F02AFFFFF73AFDA86808F04FF8009661
:1043300002460B465D48EFE003209AE0042098E037
:104340005E4A1068FFF73CFD5D480068FFF738FDE6
:104350005C4B1868FFF734FD5B490868FFF730FDD8
:104360005A4A1068FFF744FD59480068FFF740FDBE
:10437000584B1868FFF73CFD57490868FFF720FDC8
:10438000564A1068FFF71CFD55480068FFF718FDF6
:10439000544B1868FFF714FD53490868FFF710FDE8
:1043A000524A1068FFF70CFD65E051493F48096823
:1043B0000A2201F0F3FDB4E04E4C2068FFF718FD2F
:1043C0006068FFF715FDFFF735FA07F0FFFF0246BB
:1043D000022000900B46354801F0D3FEB1E0464B79
:1043E000444C1878FFF7E0FC2068FFF701FD606897
:1043F000424CFFF7FDFCFFF71DFAFFF7F9FCFDF754
:10440000C5FDFFF7F5FC2078FFF7DAFC00243C4AF5
:10441000A0580434FFF7D4FC202CF8D100243949EB
:1044200060580434FFF7CCFC102CF8D10420FFF7BF
:10443000D3FC0020FFF7C4FC33480078FFF7B4FC3E
:104440001A4803B0BDE8F04001F048BD00242C4BF1
:10445000E0580434FFF7B4FC202CF8D1F0E700203A
:10446000FFF7AEFC114800210A2201F0D2FD58E00E
:104470000920FFF7B1FC0D4801F030FD51E00B20A1
:1044800005E0FDF783FDFFF7B3FC03E00320FFF732
:10449000A3FCD5E7054800210A2203B0BDE8F0409F
:1044A00001F0B7BD38290020C02C0020F02C0020DE
:1044B000002900206E280020D4280020102B002086
:1044C000682800201C260020C8290020D02A0020AF
:1044D000BC2C0020EC250020D0290020E425002061
:1044E0008C2C00206428002034260020E8250020A1
:1044F000742C0020BC29002028260020782A0020C7
:10450000102900202C280020702C0020012200926D
:104510000FA3D3E900230C4801F033FE01E0FFF7BD
:10452000AFFC582121700CE00024084820580434C6
:10453000FFF746FC102CF8D1034801F0CFFC5823BC
:10454000337003B0F0BD00BFF02C00202C280020F9
:10455000000000A09999094010B533484FF4E131AB
:1045600002F034FA4620002102F068FA46200021C9
:1045700002F0BAFAFEF720FD4FF48A70FEF7C2FB94
:10458000DFED2A7A07EE100AB4EE677AF1EE10FA40
:1045900005D0FEF70DFC0124FEF782FE00E00024AA
:1045A000FCF740FB0420FCF791FF0820FCF7C0FE5D
:1045B000FFF716F9FCF788F9FCF734FA0028FBD06E
:1045C000FCF764FA1CB1FCF7B3FAFEF769FEFCF7DE
:1045D00023F8FFF713F8164B4FF07B54DC66C3F853
:1045E0008840144CFCF77EFD226842F010002060E9
:1045F000FDF7A6FCFDF78AFBFDF7A0FE216841F060
:1046000020032360FDF7FCFF226842F08000206059
:10461000FBF78CFE084908604620012102F064FA8D
:10462000064B00221A7010BDF02C0020CDCC4C405F
:10463000142B0020742C0020802C00207C2C0020C7
:104640002DE9F043684B694C18682268684F694E41
:10465000694D111A00EE101ADFED687AB8EE407A53
:104660002DED048BC7EE277A85B01A600024C7EDC4
:10467000007AFCF78DF9FCF72DFA614A56F8040F21
:104680006301D118FBF776FF0134032C45F8040FC2
:10469000F3D15C4C5C4BD4F80480CDF80080A16869
:1046A000DFF88C8101913868029059689A6818681F
:1046B0002368FCF755FD94ED006AFDEEC65A98EDAF
:1046C000009A15EE900A00F0B5FC94ED015AFDEE4B
:1046D000C54A074614EE900A00F0ACFC94ED028A3D
:1046E000BDEEC84A3E1814EE100A00F0A3FC3518BF
:1046F00003EE905AB8EEE33AF7EE008A13EE100A92
:1047000000F080FC02EE900AB0EE682A09EE622A00
:104710003E4F3F4E3F4D404A297897ED021A18EE22
:10472000021AD6ED001A71EE610A9146C2ED000A36
:1047300089BB94ED002AFDEEC21A98ED009A11EEA5
:10474000900A00F077FC94ED011ABDEEC18A804614
:1047500018EE100A00F06EFC94ED028AFDEEC80A15
:10476000804410EE900A00F065FC08EB000300EEB8
:10477000103AB8EEC07A17EE100A00F043FC07EECC
:10478000900A49EE678AD7ED026A58EE286A01223C
:10479000C6ED006A2A70214B214A2248D9ED003A21
:1047A000D3ED004AD2ED002A33EEA44A90ED003A50
:1047B00064EE222A43EE832AC3ED002AFDF7E6FCCD
:1047C00019490868C00701D4FDF716FDFEF730FA55
:1047D000164B586819689A6805B0BDEC048BBDE8A3
:1047E000F043FDF74FBE00BF842C0020882C002032
:1047F000540C0020282C0020782A00200024744922
:10480000E02900207C2A0020902A0020C02C0020D3
:1048100014280020E0250020602800202C260020FD
:104820000C280020400C002050290020BC2900202A
:10483000882A0020094B0A4A19681268501A00EEAB
:10484000100ADFED087AB8EE407A07491A60C7EE21
:10485000277AC1ED007AFEF785BF00BF90280020BF
:10486000882C002000247449540C00200D480E4A66
:104870000168126808B5531A00EE103ADFED0B7AA2
:10488000B8EE407A0A4B0B490260C7EE277A1868E7
:10489000C1ED007A5968FDF7B1FABDE80840FDF7AF
:1048A00069BA00BF10280020882C00200024744919
:1048B000BC290020540C002008B50B4A0B4B126891
:1048C00019681A60501A00EE100ADFED097AB8EE86
:1048D000407A0849C7EE277AC1ED007AFFF73CF825
:1048E000BDE80840FFF764BB882C0020C82A0020E0
:1048F00000247449540C0020084B094A19681268B6
:10490000501A00EE100ADFED077AB8EE407A064939
:104910001A60C7EE277AC1ED007A7047682A002036
:10492000882C002000247449540C002070B5204CC1
:10493000204D214EFBF7FAFC21682860401A3060B8
:10494000FCF7E8F9326842F20F739A4226461B4C94
:1049500027D92068431C2360FFF772FE2268D30723
:1049600001D4FFF767FF22680A23B2FBF3F003FBD1
:10497000102111B9FFF77AFF11E0114B2A6819686D
:10498000104BC1EB020C9C4502D9FFF795FF06E0E6
:104990000D480168501A984201D9FFF7ADFF2A6807
:1049A00032602368632B02D904480021016070BD86
:1049B000802C0020882C0020A428002050290020D2
:1049C000C82A0020A0860100682A002008B5FFF749
:1049D000C3FDFFF7ABFFFCE709490A4891ED000A68
:1049E000B7EE007A77EE407A08B50421C0ED007A80
:1049F0000548FBF733FEFBF799FC044B186008BD34
:104A0000400C00200C280020D429002098290020E8
:104A100010B50C888368A4B24FF6FF7084420B4433
:104A200008D008881FFA80FC944508D102E00A6883
:104A3000013206D104319942F9D3002010BD832000
:104A400010BD832010BD38B50B889BB2581E0C4694
:104A50004FF6FD7281B2914203D84EF6EE65AB423D
:104A600003D16288511C8DB200E000252046FBF77F
:104A7000FDFB052805D1A01C2946BDE83840FBF701
:104A80000DBC38BD70B505460C461646FFF7C0FF95
:104A900060B128462146FFF7D6FF052806D12846F3
:104AA00021463246BDE87040FFF7B2BF70BD0368D3
:104AB00042681988108889B210B580B219B94FF6CA
:104AC000FF74A04207D040B94FF6FF7399420CBF64
:104AD0001046002010BD184610BD002010BD70B556
:104AE000856800204D19063113E00C884FF6FF73DE
:104AF000A4B29C420CD094420AD00B1D04E01E8844
:104B0000B6B2A64204D00433AB42F8D3013080B22F
:104B10000431A942E9D370BD2DE9F74F9B46836864
:104B200005460C46164601EB030A0F1D03E03A68E2
:104B3000013203D004375745F9D344E0301DA3F1C7
:104B400002080190B04427E0B8F800104FF6FF7358
:104B50001FFA81F999451DD0D9451BD0A31D05E049
:104B60001A881FFA82FCCC4514D00433BB42F7D319
:104B700027E038F8023C384699B2FBF78FFB05284E
:104B800005D1B81C4946FBF789FB052801D005462D
:104B900014E00437A8F1040801988045D4D82846C9
:104BA00031464FF6FF72FFF76DFF054630B92946D3
:104BB0002046FBF773FB052818BF05462846BDE8CD
:104BC000FE8F5745D5D38125F8E72DE9F0470546F7
:104BD0000E461746FFF76BFF0446002866D0AB6809
:104BE00000EB0309A9F1020314E0188882B2B24273
:104BF0000FD133F8021C981E8BB2BB4259D04FF62E
:104C0000FF7C634508D13946FBF748FB052803D1F3
:104C10004FE0043BA342E8D804F1040815E0D8F8BB
:104C2000003001330FD140463946FBF737FB0528EA
:104C300043D108F102003146FBF730FB052808BFDD
:104C40000020BDE8F08708F10408C845E7D32146F5
:104C500032462846FFF743FFAB68421C990892B2E0
:104C6000481E824228D2D5F80480444508BFD5F8B2
:104C700000804EF6EE614046FBF710FB05281CD184
:104C800008F104003946FBF709FB052815D108F1A6
:104C900006003146FBF702FB05280ED128464146A7
:104CA00022463346BDE8F047FFF736BFAB20BDE8EC
:104CB000F0870020BDE8F0878120BDE8F087000084
:104CC0000449054A4FF4804C80E806108422828112
:104CD000704700BF0080000800C0000810B50446FF
:104CE000FBF708FB216820460022FFF7CBFE0146B8
:104CF000B0B92068B0F800C04FF6FF731FFA8CF20D
:104D00009A4205D1FBF7CAFA052801D0014607E00F
:104D1000616820464FF6FF72BDE81040FFF7B2BE53
:104D2000084610BDF8B50446FBF7E4FAAB2022684C
:104D3000A08117886668BFB233884EF6EE618F4255
:104D40009BB21CD04FF6FF75AF4202D0002F31D07E
:104D500039E013B92046114609E08B4209D1002100
:104D60003046FBF79BFA05283ED1216820463A469B
:104D700038E0BB4239D12046FFF7B0FF34E02BB911
:104D80001146204632464FF6FF7319E04FF6FF7288
:104D900093422AD1204631461A46FFF773FE054654
:104DA000A08110BB20682946FBF778FA05281BD1A3
:104DB000A5811AE0CBB18B422046314611D12B465A
:104DC000FFF7AAFE10E013B92046114609E08B4216
:104DD0000BD100213046FBF761FA052804D1216888
:104DE00020462A46FFF74EFEA081A089F8BD70B587
:104DF0000D464FF0FF3111808389842B04461646FF
:104E000004D1FFF78FFF08B1A08970BD2046FFF7DE
:104E10004EFEA0B1A3689A1E131806300BE0B3F83B
:104E200000C01FFA8CF1A94204D133F8020C308083
:104E3000002070BD043B8342F1D2822070BDAB20C4
:104E400070BD07B50DF10602FFF7D1FFBDF80600F2
:104E50000EBD8389842B70B504460D46164604D1D9
:104E6000FFF760FF08B1A08970BD4FF6FF70854263
:104E700006D0204629463246BDE87040FFF7A5BE61
:104E8000822070BD0148FFF71BBF00BFCC2C002063
:104E9000014801F0ADBF00BFF42C002001F092BF2B
:104EA000034610B506480C46194601F032FF044887
:104EB0002146FFF7F3FF0248BDE8104001F0BDBFF7
:104EC000F42C0020FFF7E4BF10B5FFF7E1FF044624
:104ED000FFF7DEFF40EA042010BD08B5FFF7F4FF3E
:104EE00000B208BD10B5044621460B4801F011FF81
:104EF00000210948FFF7D2FF074801F09EFF642018
:104F000001F08FFD21460122034801F057FFBDE863
:104F10001040FFF7BDBF00BFF42C002038B503469A
:104F20000C4609481946154601F0F3FE214606488D
:104F3000FFF7B4FF04482946FFF7B0FF0248BDE879
:104F4000384001F07ABF00BFF42C002007EE102A91
:104F5000F7EE006AB4EE667AF1EE10FA07EE900A08
:104F600006EE101A07D076EEC76A66EE266A47EE9E
:104F7000876AF0EE667A17EE900A7047F0B510E097
:104F80005C1C50F8237050F82460B74204DD40F8F0
:104F9000247040F823600025E3B24C1EA342EFDBEF
:104FA00015B900230125F8E7056850F82430EB1AFD
:104FB000002BB8BF5B42136001EBD172511050F867
:104FC0002100F0BD07EE100AB5EEC07AF1EE10FA3E
:104FD00007EE901A04DDF5EEC07AF1EE10FA0CD46B
:104FE000B5EEC07AF1EE10FA09D5F5EEC07AF1EE21
:104FF00010FAD4BF00200120704701207047002024
:10500000704700000A49A1EB600300EE103A00EE81
:10501000900A20EE806AF0EE087A46EE407AB6EE0C
:10502000001A60EE016A26EEA77A17EE100A7047A2
:10503000DF59375F4043704707292FD8DFE801F079
:1050400004090F14191E232903689A6842F03D02CF
:1050500003E00368986840F474629A6070470368DC
:10506000996841F47412F8E703689A6842F0746230
:10507000F3E70368D86840F03D0208E00368D968A8
:1050800041F4746203E00368DA6842F47412DA608F
:1050900070470368D96841F07460D860704738B5CC
:1050A0004B1C50F8333005460C4633B19847284620
:1050B0002146BDE83840FFF7BFBF38BD024B002195
:1050C0001868FFF7ECBF00BFEC0C0020024B012179
:1050D0001868FFF7E4BF00BFEC0C0020024B022170
:1050E0001868FFF7DCBF00BFEC0C0020024B032167
:1050F0001868FFF7D4BF00BFEC0C0020024B04215E
:105100001868FFF7CCBF00BFEC0C0020024B052154
:105110001868FFF7C4BF00BFEC0C0020024B06214B
:105120001868FFF7BCBF00BFEC0C0020024B072142
:105130001868FFF7B4BF00BFEC0C0020024B002141
:105140001868FFF7ACBF00BFF00C0020024B012134
:105150001868FFF7A4BF00BFF00C0020024B02212B
:105160001868FFF79CBF00BFF00C0020024B032122
:105170001868FFF794BF00BFF00C0020024B042119
:105180001868FFF78CBF00BFF00C0020024B052110
:105190001868FFF784BF00BFF00C0020024B062107
:1051A0001868FFF77CBF00BFF00C0020024B0721FE
:1051B0001868FFF774BF00BFF00C0020024B586165
:1051C00000BF00BF704700BF003C0140064B10B558
:1051D00053F83030044633B198470120A040BDE871
:1051E0001040FFF7EBBF10BDF40C00200E4B2DE973
:1051F000F0410D465C69064600270EE04FF00100C5
:1052000000FA06F818EA040F06D0084951F83630BB
:1052100013B1984747EA08070136AE42EED938463F
:10522000BDE8F041FFF7CABF003C0140F40C00208C
:105230000020FFF7CBBF0120FFF7C8BF0220FFF718
:10524000C5BF0320FFF7C2BF0420FFF7BFBF052083
:105250000921FFF7CBBF0A200F21FFF7C7BF10B509
:105260000446007900F008FA2079BDE8104000F00B
:10527000E7B9000008B50B48FFF7F1FF0A48FFF750
:10528000EEFF0A48FFF7EBFF0948FFF7E8FF094880
:10529000FFF7E5FF0848FFF7E2FF0848BDE80840D0
:1052A000FFF7DDBF740D00207C0D0020840D002071
:1052B0008C0D0020940D00209C0D0020A40D0020DA
:1052C000036870B54800032616FA00F41D68E4432D
:1052D00002F0030604EA050C16FA00F54CEA05068E
:1052E000950805F0030585401E60DE6804EA060C9B
:1052F00045EA0C051609DD6006F003069D6816FAFE
:1053000000F0920904EA050C02F0010414FA01F21B
:10531000012414FA01F140EA0C009860586820EA70
:10532000010042EA0001596070BD0368C80801F03D
:10533000070130B589000F248C4002F00F0212FAE9
:1053400001F1083053F8205025EA04040C4343F8D7
:10535000204030BD03681961704703681A6812F471
:10536000985FFBD1196841F480701860704703683A
:105370001A6812F4985FFBD1196841F40070186044
:105380001A6812F4985FFBD170470368586841EAC5
:1053900000025A6070470368586820EA01025A60A8
:1053A00070470368186820F480621A607047000034
:1053B000014B1868704700BF342E0020016810B5FB
:1053C0008A69044602F47063002283614A618A613B
:1053D000FFF7CDFF20464FF4E061FFF7DCFFFF232E
:1053E000637310BDF8B5036805695F690446AE785C
:1053F0009B69FFF7DDFF6061F80706F0010613D532
:105400000020E8804FF480612046FFF7BEFF26B100
:1054100021680F6847F480620A60B5F800C023680D
:1054200046EA4C0018610027B9071ED5AB8876B153
:10543000012B17D12046FFF7B4FFE2892046012A4D
:1054400002D9FFF78AFF0DE0FFF791FF0AE0012B79
:105450000AD0E888A968471C095CEF802046FFF75E
:1054600079FF01E0002700E0374607F0840EBEF127
:10547000800F1BD1E789AFB1EF88A8687A1CC15DA6
:10548000EA802046FFF766FFB5F806C0AB889C456A
:105490000BD14FF480612046FFF77DFFE389591E51
:1054A000E18102E000F09AFC00E0002707F08402AE
:1054B000842A17D1E689204656B1FFF74EFF2368AC
:1054C0005F69FA07FCD5206900270C30206109E0EC
:1054D000FFF74DFF4FF400712046FFF75CFF0221FC
:1054E000617337467B0627D52368E8881969AA685F
:1054F000431C1154AA889BB2501E8342EB800ED1EC
:105500002046FFF74EFFE1892046022903D9BDE876
:10551000F840FFF722BFBDE8F840FFF728BF9342ED
:105520000AD1E3895A1E90B2E08110B90221617359
:10553000F8BD20690C302061F8BD00000148FFF77C
:1055400051BF00BFAC0D00200148FFF74BBF00BFAB
:10555000C80D00200148FFF731BF00BFAC0D00208F
:105560000148FFF72BBF00BFC80D002001EBC001B1
:10557000880000F184431A6070470000244B1868CB
:1055800040F480321A604FF4A063214A1168890305
:1055900001D4013BF9D112681D4B920336D51A6C28
:1055A000DFF888C042F080501A4A1864116841F44C
:1055B0008040106099689960986840F400429A6051
:1055C0009968154A41F4A05098601449144882E83B
:1055D0000310144A5A60196841F0807018600C4B2F
:1055E00019688801FBD5104A40F20561116098687E
:1055F00020F0030199609A6842F002009860044824
:10560000836803F00C0CBCF1080FF8D1704700BFA1
:105610000038024000700040DC2C002000BD010575
:1056200080DE800208544007003C0240007A030AF2
:10563000FFF7A4BF014B13F810007047E4080208FD
:1056400038B50446FFF7F6FF094B0A4903EB44045B
:1056500051F820506478284621460122FFF786FF42
:10566000284621460022BDE83840FFF77FBF00BF33
:10567000E40802083C09020810B50446FFF7DAFF07
:105680000549064A01EB440352F8200059780122EB
:10569000BDE81040FFF76ABFE4080208D00802081E
:1056A00008B5FFF7C7FF024B53F8200008BD00BF45
:1056B000DC2C002008B5FFF7F3FF400008BD704761
:1056C000014B07221A60704710E000E0014B586060
:1056D000FFF7F6BF10E000E008B572B60548064BCC
:1056E0001B6801684A1C026062B6044B1B6803B168
:1056F000984708BD342E002010E000E0EC2C00207C
:10570000002807DB421100F01F0101208840024BF6
:1057100043F82200704700BF00E100E070B54E1E64
:105720006FF0070501F0010169430831C9B2FF2597
:105730008D40134313FA01F100687410183004F01F
:10574000010450F8246026EA05050D4340F8245072
:1057500070BD023138B550F821301546046823B1C8
:105760009847236923EA0505256138BD0721802272
:10577000FFF7EFBF00210122FFF7EBBFF8B5056887
:105780000646EB682F691F4017F0400403D0046AF7
:105790000CB1A0474024BB0604D5F36913B1984768
:1057A00044F02004286920EA04042C61F8BDF8B50F
:1057B00007680546FB683E691E4016F0100403D0DA
:1057C00084690CB1A0471024300704D56B6913B16C
:1057D000984744F00804710704D52B6913B1984722
:1057E00044F00404B20704D5EB6813B1984744F0C1
:1057F0000204386920EA04043C61F8BDF8B5076882
:105800000546FB683E691E4016F0400403D0046A5A
:105810000CB1A0474024F30604D5AB6913B19847F7
:1058200044F01004300704D56B6913B1984744F075
:105830000804710704D52B6913B1984744F0040498
:10584000B20704D5EB6813B1984744F00204F3079C
:1058500004D5AB6813B1984744F00104386920EAD5
:1058600004043C61F8BD00210122FFF772BF01EB87
:10587000C001880000F18440704708B500680C3012
:10588000FFF7F5FF0023036008BD08B50068013984
:1058900020308900FFF7EBFF0123036008BD10B53E
:1058A00004460079FFF7E8FE2079BDE81040FFF7D5
:1058B000C7BE00000D4A10B504461068A0470C4949
:1058C0000868A0470B480068A0470B4B1868A04722
:1058D0000A4A1068A0470A490868A04709480068B2
:1058E000A047094B1868A04710BD00BF900E0020CC
:1058F000940E0020980E00209C0E0020A00E002088
:10590000A40E0020A80E0020AC0E002038B58B1C81
:10591000044640F8232000680D460C30FFF7A7FF2F
:105920006379012101602079002B23D1A0F10A02C3
:10593000504240EB0200072D3ED8DFE805F0040995
:1059400009090911111600280CBF2C20192003E0A9
:1059500000280CBF2E201B20BDE83840FFF7D0BE2A
:1059600000280CBF2D201A20F6E700280CBF2B20A2
:105970001820F1E70B38112816D8DFE800F0090BE2
:105980000D1515151515151515151515150F1113DB
:105990001C20E1E71D20DFE71E20DDE73220DBE7EA
:1059A0003620D9E73720D7E70448054A40F2DD1111
:1059B000BDE8384000F0DCB938BD00BF500902082E
:1059C0009009020838B50D4604460235FFF755FF29
:1059D000002344F8253038BD70B50446481EC3B2D4
:1059E000032B0D46164604D91C48AD211C4A00F075
:1059F000BFF96179022904D11848B021194A00F091
:105A0000B7F96279022A27D0012E10D002D3022ED4
:105A100022D115E020462946FFF7D4FF2068691EF1
:105A200020308900FFF723FF0023036070BD20466C
:105A30002946FFF722FF204629466022082303E07B
:105A40002046294610220023FFF768FE20462946FB
:105A5000BDE87040FFF719BF70BD00BF50090208D4
:105A600092090208AE090208014B1868FFF77EBED2
:105A7000900E0020014B1868FFF77CBE900E0020AE
:105A8000014B1868FFF77ABE900E0020014B186892
:105A9000FFF78DBE900E0020014B1868FFF7AEBED9
:105AA000940E0020014B1868FFF7A8BE980E002046
:105AB000014B1868FFF7A2BE9C0E0020014B18682E
:105AC000FFF79CBEA00E0020014B1868FFF7CBBE6D
:105AD000A40E0020014B1868FFF7C5BEA80E0020D9
